S01800004B65792D7061642E636F6E6669672E682E7372656347
S11300000C942A000C9447000C9447000C9447006D
S11300100C9447000C9447000C9447000C94470040
S11300200C9447000C9447000C9447000C94470030
S11300300C9447000C9447000C9447000C94470020
S11300400C9447000C9447000C9447000C94470010
S11300500C94470011241FBECFE5D8E0DEBFCDBF0E
S113006010E0A0E6B0E0E4EAF0E002C005900D92F2
S1130070A036B107D9F710E0A0E6B0E001C01D92A8
S1130080A036B107E1F70E9449000C9450000C948B
S11300900000FFCF8FE084BB8FEF85BB08950895E8
S10700A0F894FFCFFE
S9030000FC
