S01500004B65795061642D6472697665722E7372656318
S11300000C942A000C9447000C9447000C9447006D
S11300100C9447000C9447000C9447000C94470040
S11300200C9447000C9447000C9447000C94470030
S11300300C9447000C9447000C9447000C94470020
S11300400C9447000C9447000C9447000C94470010
S11300500C94470011241FBECFE5D8E0DEBFCDBF0E
S113006010E0A0E6B0E0EEEDF0E002C005900D92E5
S1130070A036B107D9F710E0A0E6B0E001C01D92A8
S1130080A036B107E1F70E9449000C946D000C946E
S113009000000E9451000E9462008335E1F785B39D
S11300A0FACFA09AA19AA29AA39AA498A598A698DE
S11300B0A7989C9A9D9A9E9A9F9AA89AA99AAA9A56
S11300C0AB9A0895A89AA99AAA9AAB9AA89885B3C4
S11100D085B385B385B38FEF0895F894FFCF01
S9030000FC
